:020000040000FA
:0400000000002728AD
:040004000034003490
:08000800FD000308FE000A08D8
:10001000FF008B1C20288B109F140C1F1C280C1316
:100020001E08FA00FA0CFA137A084C20FA00253C54
:10003000031D1C283530FA008B1C09288B109F14D7
:100040007F088A007E088300FD0E7D0E09000317DD
:100050008316081409120614091203138316870164
:1000600083128312031301309F000C170C138312A9
:1000700003138B100B168B17FA017A08FC00FC1780
:100080007C137C0887007A08FB00FB0EFB137B17B0
:100090007B08870000003D288207003400340134CB
:1000A000013402340234023403340334043404349B
:1000B0000434053405340534063406340734073473
:1000C000073408340834093409340934103410343E
:1000D00011341134113412341234133413341334F0
:1000E00014341434143415341534163416341634C8
:1000F0001734173418341834183419341934203498
:100100002034203421342134213422342234233445
:10011000233423342434243425342534253426341C
:1001200026342734273427342834283429342934F2
:1001300029343034303430343134313432343234A0
:100140003234333433343434343434343534353471
:100150003634363436343734373438343834383447
:100160003934393439344034403441344134413401
:1001700042344234433443344334443444344534C5
:10018000453445344634463446344734473448349D
:0A01900048344834493449345034EF
:02400E00E428A4
:02401000FF3E71
:0A42000005000400030002000100A5
:00000001FF
